00010013GUSTAVO LEAL                  0001C00000075000
00010014HELENA VAZ                    0004P00001000000
00010015IGOR FARIA                    0002C00000320000
00010099CONTA SUSPEITA                0002CXXXXXXXXXXX
